:020000040000FA
:1000000028020020650100007F010000A11000000F
:1000100000000000000000000000000000000000E0
:10002000000000000000000000000000830100004C
:1000300000000000000000008501000087010000B2
:10004000B1100000BB100000C5100000CF10000070
:100050008901000089010000E1100000EB100000A0
:100060008901000089010000F510000089010000ED
:10007000FF100000890100000911000013110000A9
:100080001D1100008901000027110000311100003E
:100090003B110000451100004F11000089010000D4
:1000A0005911000089010000631100006D1100006A
:1000B0007711000089010000811100008B11000000
:1000C00000F002F800F03EF80CA030C80838241800
:1000D0002D18A246671EAB4654465D46AC4201D180
:1000E00000F030F87E460F3E0FCCB6460126334274
:1000F00000D0FB1AA246AB4633431847A83A00008B
:10010000C83A0000103A02D378C878C1FAD852072A
:1001100001D330C830C101D504680C6070470000BD
:100120000023002400250026103A01D378C1FBD813
:10013000520700D330C100D50B6070471FB51FBDFB
:1001400010B510BD03F027FC1146FFF7F7FF00F0D4
:1001500099FC03F03FFC03B4FFF7F2FF03BC03F08C
:100160000DFC00000C480D4A002100A1814200D97D
:1001700002440B4802600B4880470B480047FEE7EB
:10018000FEE7FEE7FEE7FEE7FEE700000748084956
:10019000064A084B704700000000002000000000E5
:1001A00008ED00E0C5010000C100000028010020AA
:1001B000280200202801002010B501F0AEF80B49FC
:1001C000086010BD1CB5022001F0F1F8FFF7F4FF44
:1001D0000821684602F046FE01206946487004483E
:1001E0000190684601F0AAF91CBD00000000002043
:1001F000FFFFFF00704710B5012001F08FFDFC49A3
:10020000FC4A12788854FB480078401CF949087071
:1002100008460078142801DB002008700120F64908
:10022000087010BD704710B5022001F06DFE012866
:1002300016D1022001F09AFEF0480088401CEF49D8
:100240000880EF480088401CED490880ED48008890
:10025000401CEC490880EC480088401CEA490880B2
:1002600010BD70B586B00124E84D2E460122032151
:10027000102000F0EFFE022001F0B1FEE4480590EE
:1002800000216846017141718171C17101720121C2
:10029000417201A9022001F035FF002800D000BF03
:1002A0002946022002F0C2F83146022002F0FFF88F
:1002B000022002F044F8204606B070BD01B5684641
:1002C0004078D449086000BFD24800698007C00F59
:1002D0000028F9D0CF48006902218843CD49086140
:1002E0000221012001F098FC68460078C9490860A5
:1002F00000BFC84800698007C00F0028F9D0C54872
:10030000006902218843C34908610221012001F0EC
:1003100083FC08BD70B594B010210FA802F0A2FDB7
:100320000C210CA802F09EFD03210BA802F09AFDFF
:10033000082109A802F096FD142104A802F092FDFC
:10034000032103A802F08EFD0021684641730C21B1
:100350000CA802F087FD03210BA802F083FD082101
:1003600009A802F07FFD142104A802F07BFD0321FF
:1003700003A802F077FD00216846417310A80173BD
:10038000012141738173A448C088A449C86000BF9B
:10039000A248C0680005C00F0028F9D0A0489F49B6
:1003A000086201220321084602F09DFB002203217E
:1003B000104602F098FB01220321002002F082FC8B
:1003C00000200090019001230246052102900320A5
:1003D00002F0DCFB00200090019001230246062180
:1003E0000290032002F0D2FB00BF8E48C06820219B
:1003F00088438C49C8608C484069C008C000401CD4
:1004000089494861874800682021884385490860F8
:1004100000BF00BF0846C068402188438149C860CA
:1004200081488069C008C000401C7F4988617D48C0
:1004300000684021884340307A4908600846406A95
:100440004021884340307749486200BF012108209D
:1004500001F059F80121084601F055F873480E9053
:1004600073480C9073480D900CA81190012110A8AE
:10047000017208A8017700210173002421460120A0
:1004800001F056FA0BA81090002108A841714B20EA
:1004900000020A90012108A8017100F07AFF0646C7
:1004A00009AA3146012001F08FFA0546012168466C
:1004B00041750021017504A9012001F023FE2946A0
:1004C000012001F0B3FF2946012001F0F0FF0120D7
:1004D00001F035FF0FA9012001F0BBFC0121084606
:1004E00001F025F90121084601F096FB012108469B
:1004F00001F0B9FA14B070BD10B503F001F9012094
:100500004D49087010BD1CB54C4801786846017013
:10051000012141704A4801900F2000F0F4FF684625
:1005200003F0B8F803F0E4F81CBDF8B506460D4634
:100530007420444908703D2048706421304603F01F
:100540005FF907460A2103F05BF93031C8B23D4933
:1005500088700A21304603F053F907460A2103F058
:100560004FF93031C8B23749C8702E2008710A21BE
:10057000304603F045F93031C8B2324948712C2079
:1005800088716820C8713D2008726421284603F0F4
:1005900037F907460A2103F033F93031C8B2294947
:1005A00048720A21284603F02BF907460A2103F076
:1005B00027F93031C8B2234988722E20C8720A2127
:1005C000284603F01DF93031C8B21E4908730024D3
:1005D00006E01C48015D012001F072FB601CC4B202
:1005E0000D2CF6DB0A21012001F06AFBF8BD0000AA
:1005F00090000020040000201A0000204800002085
:100600004C0000204600002044000020BFE0000015
:100610002702000000010040000C100000200040F4
:1006200003852090C00D0240C00C0240F70100007D
:10063000F5010000250200004100002042000020DA
:10064000F9040000B8000020F8B506460D46662003
:10065000FE4908703D2048707D21C900304603F0F6
:10066000CFF807460A2103F0CBF83031C8B2F7497A
:1006700088706421304603F0C3F807460A2103F06E
:10068000BFF83031C8B2F149C8702E2008710A2174
:10069000304603F0B5F807460A2103F0B1F83031CF
:1006A000C8B2EA4948712C2088716820C8713D2081
:1006B00008726421284603F0A3F807460A2103F0D4
:1006C0009FF83031C8B2E14948720A21284603F048
:1006D00097F807460A2103F093F83031C8B2DB4996
:1006E00088722E20C8720A21284603F089F830311A
:1006F000C8B2D6490873002406E0D448015D012041
:1007000001F0DEFA601CC4B20D2CF6DB0A210120D8
:1007100001F0D6FAF8BD10B5CD4880793038CD4912
:100720000870CB48C07930384870C948007A3038F2
:100730008870C748007B3038C870C548407B303867
:100740000871C348807B30384871084600780A2118
:100750004843C04989784018BF490870BD48C078EF
:100760000A214843BB4949794018BC490870012017
:10077000BB4908700020BB490870BB4908706F2155
:10078000012001F09DFA6B21012001F099FA0A2164
:10079000012001F095FAB248007810BD70B5B34859
:1007A00002F094F8B14800687D21C9004843050D66
:1007B000AE484068C82148430A214843000D04461A
:1007C000FF3CF53C122060431921C9014618A4489A
:1007D000007800280DD1A6480078002804D12946C9
:1007E0002046FFF7A2FE17E029463046FFF72CFF10
:1007F00012E09A4800782D189748007824189C48F1
:100800000078002804D129462046FFF78EFE03E039
:1008100029463046FFF718FF002092490870924998
:1008200008706F21012001F04BFA6B21012001F0CB
:1008300047FA0A21012001F043FA70BD10B584483F
:10084000407930388B490870002086490870864905
:1008500008706F21012001F033FA6B21012001F0B3
:100860002FFA0A21012001F02BFA10BD014605E004
:100870006E2200E0521E002AFCD1491E0029F7D149
:10088000704710B5794802F021F8784800687D215A
:10089000C9004843000D7849086074484068C82181
:1008A00048430A214843000DFF38F5387349086072
:1008B000012010BD10B56D4802F008F86B480068C3
:1008C0007D21C9004843000D6B49086067484068B6
:1008D000C82148430A214843000DFF38F5386749CD
:1008E000086008460068122148431921C9014018D0
:1008F00063490860012010BD10B55C4801F0E6FFB7
:100900005A4800687D21C9004843000D53490978C1
:1009100040185949086055484068C82148430A2191
:100920004843000DFF38F5384B49097840185349C2
:100930000860012010BD10B54C4801F0C7FF4B48BE
:1009400000687D21C9004843000D444909784018DA
:100950004949086045484068C82148430A2148433E
:10096000000DFF38F5383C490978401843490860C4
:1009700008460068122148431921C901401840491E
:100980000860012010BD0EB5002001220190034631
:10099000042100920290032002F0F8F800200122C6
:1009A0000190034611460092029002F0EFF80020F9
:1009B00001220190034602210092029002F0E6F823
:1009C000002001220190034603210092029002F0D0
:1009D000DDF80020012201900346062100920290DA
:1009E000022002F0D3F800200122019003460421E6
:1009F00000920290022002F0C9F80020012201902A
:100A00000346032100920290022002F0BFF800206A
:100A1000012201900346114600920290032002F049
:100A2000B5F80020012201900346072100920290B0
:100A3000022002F0ABF800200122019003460521BC
:100A400000920290022002F0A1F80EBDB800002032
:100A500090000020A40000203D0000203E00002067
:100A60003C0000201A000020040000202800002084
:100A7000260000204000002030000020340000202C
:100A8000380000200EB50024FFF744FC01F0C4FF3D
:100A9000FFF739FDFFF7E5FB0020009001900123EF
:100AA0001A4602210290032002F070F80822022167
:100AB000032002F0A9F901220321084600F0CAFA36
:100AC000002001220190034605210092029002209D
:100AD00002F05CF8FF20F530FFF7C8FEA9E2022122
:100AE000032002F010F900282AD1FE4800780028DF
:100AF00026D10A20FFF7BAFE14E0FB4800887D21CA
:100B0000C90088420EDD01F073FD02F017FB0120E1
:100B1000F6490870F6490870F24908700020F24959
:100B2000088005E00221032002F0EDF80028E4D05F
:100B300000BF00BF0221032002F0E5F80028F9D031
:100B4000EB48007801284BD1EA480078002847D1CB
:100B5000E5490880E84908800221032002F0D3F823
:100B600000283DD12820FFF781FE1EE0DE480088E6
:100B700019214901884218DAFFF79CFE002813D09A
:100B8000DE49DF48006802F047FBDC49DD480068C9
:100B900002F0F6FC0621D94802F014FB0020D249ED
:100BA00008800120D349087005E00221032002F0EB
:100BB000AAF80028DAD000BF2820FFF757FE09E086
:100BC000C94800887D21C900884203DD02F039FD53
:100BD00001F0FCFC0221032002F095F80028EFD080
:100BE000C348007801284BD1C2480078012847D17A
:100BF0000020BD490880C04908800221032002F07E
:100C000082F800283CD12820FFF730FE1DE0B648CE
:100C1000008819214901884217DAFFF732FE0028BF
:100C200012D0B649B848006802F0F0FBB349B548A5
:100C3000006802F0A5FC0621B04802F0C3FA0020CB
:100C4000A9490880AB49087005E00221032002F0A1
:100C50005AF80028DBD000BF2820FFF707FE09E084
:100C6000A14800887D21C900884203DD02F0E9FC2B
:100C700001F0ACFC0221032002F045F80028EFD07F
:100C800098480078012831D19848007801282DD162
:100C90000020954908800221032002F034F8002842
:100CA00024D12820FFF7E2FD12E08F4800887D2143
:100CB000C90088420CDD02F0C4FC01F087FC002072
:100CC000894908808949087001208949087005E030
:100CD0000221032002F017F80028E6D000BF00BF71
:100CE0000221032002F00FF80028F9D0052102208C
:100CF00002F009F800287DD1844800780128FAD153
:100D00008348007800282BD17A480078012811D137
:100D1000FFF7D0FD00280DD078497948006802F02F
:100D20007BFA76497748006802F02AFC062173486E
:100D300002F048FA6F480078002811D1FFF7A1FDB2
:100D400000280DD06D497048006802F05FFB6B49C8
:100D50006C48006802F014FC0621684802F032FA80
:100D60006C480078012834D16B48007867280FD18F
:100D70006948407865280BD167488078742807D186
:100D80005F4802685F4801685F480068FFF706FD3A
:100D90006148007861280DD15F484078752809D1F5
:100DA0005D488078742805D15B48C0786F2801D1F0
:100DB000FFF744FD5848007873280AD15648407818
:100DC000652806D154488078742802D1FFF7A3FC27
:100DD0000446012C2DD147480078012813D1FFF794
:100DE000AAFD00280FD045494548006802F014FAD2
:100DF000424900E02BE04348006802F0C1FB0621B5
:100E00003E4802F0DFF93B480078002811D1FFF797
:100E100073FD00280DD039493B48006802F0F6FA0E
:100E200036493848006802F0ABFB0621334802F02F
:100E3000C9F900203549087000BFFFF7A4FD374805
:100E40000069042108433549086100BF30BF05210E
:100E5000022001F058FF012866D1314800887D2129
:100E6000C900884260DB00202D49088028480078AE
:100E7000002863D11F48007801281BD1FFF71AFD15
:100E800000280DD01D491E48006802F0C5F91B4915
:100E90001C48006802F074FB0621184802F092F921
:100EA00020480078012805D11648016814480068D8
:100EB000FFF7CAFB0F48007800283FD1FFF7E1FC9D
:100EC00000280DD00D491048006802F09FFA0B4928
:100ED0000C48006802F054FB0621084802F072F941
:100EE000104822E0250000204600002023000020BA
:100EF0002400002026000020440000201B000020C9
:100F00003800002030000020340000204100002084
:100F10003C0000201A0000209000002000ED00E0BE
:100F20004C0000204000002083E00078012805D11B
:100F30004048016840480068FFF7F7FA3F480078EA
:100F4000012834D13E48007867280FD13C484078CA
:100F500065280BD13A488078742807D1394802684F
:100F60003448016834480068FFF718FC34480078BA
:100F700061280DD132484078752809D130488078F1
:100F8000742805D12E48C0786F2801D1FFF756FC90
:100F90002B48007873280AD129484078652806D163
:100FA00027488078742802D1FFF7B5FB0446012C4E
:100FB0003FD12548007801281BD1FFF7BCFC002851
:100FC0000DD022491F48006802F026F91F49194830
:100FD000006802F0D5FA06211C4802F0F3F81C481C
:100FE0000078012805D11348016816480068FFF70A
:100FF0002BFB1548007800281BD1FFF77DFC00284B
:101000000DD012490C48006802F000FA0F49094857
:10101000006802F0B5FA06210C4802F0D3F80C483B
:101020000078012805D10348016803480068FFF7EC
:101030007CFA54E530000020340000201A00002023
:101040009000002038000020260000201B00002017
:1010500040000020F8B505460F4616466CB2204603
:10106000C206D20E01219140664A116000BF394686
:1010700000F090F8012E08D100BFE106C90E012052
:1010800088406149086000BF09E000BFE106C90E61
:10109000012088405C498031086000BF00BFF8BD76
:1010A00008B50020009000BF00980028FCD008BDC3
:1010B00010B50020C046C04610BD10B50120C04686
:1010C000C04610BD10B50220C046C04610BD10B5C8
:1010D0000221032001F0A4FE0320C046C04610BD3B
:1010E00010B5002000F03CFE10BD10B5012000F04E
:1010F00037FE10BD10B50020C046C04610BD10B56B
:101100000020C046C04610BD10B5002000F0E2FF30
:1011100010BD10B5012000F0DDFF10BD10B502209C
:1011200000F0D8FF10BD10B50420C046C04610BD69
:1011300010B50520C046C04610BD10B50620C046FB
:10114000C04610BD10B50020C046C04610BD10B549
:10115000002002F0DBFA10BD10B50020C046C046EA
:1011600010BD10B50020C046C04610BD10B501200E
:10117000C046C04610BD10B50020C046C04610BDD8
:1011800010B50020C046C04610BD10B50020C046B6
:10119000C04610BD10B5002819DA1C4A03071B0F02
:1011A000083B9B089B00D2588307DC0EFF23A3401B
:1011B0009A438B071B0E8407E40EA3401A43134B7C
:1011C0000407240F083CA408A4001A5118E00E4A92
:1011D00003231B02D21883089B00D2588307DC0E1E
:1011E000FF23A3409A438B071B0E8407E40EA34002
:1011F0001A43054B032424021B198408A4001A5126
:1012000010BD000080E200E000E100E01CED00E025
:10121000F948FA498860FA4888607047F7480068DA
:101220000F21C9028843F5490860704770B505462B
:101230000C460026FFF7ECFF002C01D0012000E057
:10124000002004462B0002F007FC0805121D28337D
:101250003E495461E94800680121C9038843E1031C
:101260000122D20311400843E449086052E0E348F8
:101270004068022188436100022211400843DF498F
:10128000486047E0DD48406804218843A10004220B
:1012900011400843D94948603CE0D84840680821DB
:1012A0008843E100082211400843D449486031E0F6
:1012B000D248406810218843210110221140084380
:1012C000CE49486026E0CD48406840218843A101CE
:1012D000402211400843C94948601BE0C7484068A4
:1012E00080218843E101802211400843C3494860BE
:1012F00010E0C2484068FF21013188432102FF22EB
:10130000013211400843BD49486003E0FFF786FF02
:10131000042600BF00BF304670BD0CB50020B9A246
:1013200012680192B84A12680092B44A1268920692
:10133000910F002906D001291BD002290DD00329C5
:101340001CD118E0AD4AD26803235B021A40520A4E
:1013500001AB985CAD4A504312E0A84A52690123A0
:101360005B021A40520A52006B46985A642250435C
:1013700006E0A74804E00120C00301E0002000BF10
:1013800000BF9E4A1268D205530F0246DA4010464B
:101390000CBD10B50024FFF7C0FF04469748006855
:1013A0004005810F2046C8400446204610BD10B5B8
:1013B000014600208A1E130002F04EFB0504101C9B
:1013C00028344000934B1B895A05520D8B4BDB6828
:1013D000DB0ADB021343894CE36031E08D4BDB8891
:1013E0005A05520D854BDB68DB0ADB021343834C45
:1013F000E36025E0874B9B885A05520D7F4BDB68E5
:10140000DB0ADB0213437D4CE36019E0814B5B8810
:101410005A05520D794BDB68DB0ADB021343774C2C
:10142000E3600DE07B4B1B885A05520D734BDB6864
:10143000DB0ADB021343714CE36001E0042000BFD0
:1014400000BF00BF6D4AD2681205D20F002AF9D042
:1014500010BD10B50446102C14D008DC012C0DD0A2
:10146000022C0CD0042C0BD0082C21D109E0202C0C
:1014700009D0402C08D0802C1AD106E000BF00BF54
:1014800000BF00BF00BF00BF00BFFFF7C1FE204686
:1014900001F0DCFCC4B259480068FF21C131884327
:1014A000A101FF22C132114008435449086001E004
:1014B000042010BD00BF0020FBE710B50446012C3E
:1014C00006D0022C05D0042C04D0082C16D102E042
:1014D00000BF00BF00BFFFF79BFE204601F0B6FC37
:1014E000C4B24648006803214902884361020322CE
:1014F0005202114008434149086001E0042010BD38
:1015000000BF0020FBE710B502460020002901D0F3
:10151000012300E000231946002907D0374B1B6A3E
:10152000012494402343354C236206E0334B1B6A6D
:1015300001249440A343314C236210BD10B50446EE
:10154000002C01D1042010BD2C48006A012109069D
:1015500088434018294908622078002806D00128CD
:101560001AD002280DD0032827D11EE02348406B53
:101570000321890688430121C90640181F49486391
:101580001DE01E48406B032189068843012189061E
:1015900040181A49486312E01848406B0321890635
:1015A000884340181549486309E01448406B0321FB
:1015B000890688431149486301E00420C3E700BF5E
:1015C0000E48406B01214906884361784906012293
:1015D000520611400843094948636068401E0E499D
:1015E00048610321081F00F019F800200A498861AA
:1015F000012008610020A6E75A5A000000200040A0
:10160000A5A5000004081018743A000040420F001D
:101610000048E801000C100000E000E010B50028D0
:1016200019DA1A4A03071B0F083B9B089B00D25884
:101630008307DC0EFF23A3409A438B071B0E84070E
:10164000E40EA3401A43114B0407240F083CA408DE
:10165000A4001A5118E00E4A03231B02D218830873
:101660009B00D2588307DC0EFF23A3409A438B07CD
:101670001B0E8407E40EA3401A43054B03242402E7
:101680001B198408A4001A5110BD00001CED00E0D5
:1016900000E100E010B5002819DAF84A03071B0F33
:1016A000083B9B089B00D2588307DC0EFF23A34016
:1016B0009A438B071B0E8407E40EA3401A43EF4B9B
:1016C0000407240F083CA408A4001A5118E0EC4AAF
:1016D00003231B02D21883089B00D2588307DC0E19
:1016E000FF23A3409A438B071B0E8407E40EA340FD
:1016F0001A43E34B032424021B198408A4001A5143
:1017000010BD10B502460020002100BF0BE01423DD
:101710004B43DC4CE358934203D114234B43181939
:1017200003E04B1CD9B20229F1D300BF10BD70B544
:1017300006460D46002400BF002E01D0012E01D127
:10174000012000E00020002800D004E08C22CEA17F
:10175000D5A002F00DF800BF00BF002D01D0012D73
:1017600001D1012000E00020002800D004E08D22FB
:10177000C5A1DBA001F0FCFF00BF3046FFF7C1FFB1
:101780000446002C01D1042070BD002D02D0012D93
:1017900010D107E06068406802218843801C6168BE
:1017A000486009E06068406840084000401C61688B
:1017B000486001E00420E7E700BF0020E4E770B5DF
:1017C00006460D46002400BF002E01D0012E01D197
:1017D000012000E00020002800D004E0AE22AAA1F1
:1017E000B1A001F0C5FF00BF00BF002D01D0012D49
:1017F00001D1012000E00020002800D004E0AF2249
:10180000A1A1B7A001F0B4FF00BF3046FFF779FFF8
:101810000446002C01D1042070BD002D02D0012D02
:101820000ED106E060684068022188436168486024
:1018300008E060684068400840006168486001E076
:101840000420E9E700BF0020E6E770B505460C4636
:10185000002600BF002D01D0012D01D1012000E0A4
:101860000020002800D004E0D02287A18EA001F043
:101870007FFF00BF00BF002C05D0012C03D0022C3D
:1018800001D0032C01D1012000E00020002800D06D
:1018900004E0D1227CA1A24801F06AFF00BF2846E3
:1018A000FFF72FFF0646002E01D1042070BD70689F
:1018B0004068C0218843A101C022114008437168DB
:1018C00048600020F2E770B506460C46002500BFD0
:1018D000002E01D0012E01D1012000E000200028BF
:1018E00000D004E0E62268A16FA001F041FF00BF34
:1018F0003046FFF706FF0546002D01D1042070BDDC
:10190000002C13D068684068202188432178490161
:10191000202211400843696848602078012805D1D9
:10192000607869688860A0786968C8600020E6E728
:1019300070B504460E46002500BF002C01D0012CD6
:1019400001D1012000E00020002800D005E0FF22A6
:1019500004324DA154A001F00BFF00BF2046FFF759
:10196000D0FE0546002D01D1042070BD6868406896
:1019700008218843F1000822114008436968486043
:101980000020F2E770B50446002500BF002C01D00E
:10199000012C01D1012000E00020002800D005E04A
:1019A000FF22193238A140A001F0E2FE00BF20461C
:1019B000FFF7A7FE0546002D01D1042070BD686821
:1019C00040684007C00FF9E7F8B505460F461446D2
:1019D00000200090002600BF002D01D0012D01D174
:1019E000012000E00020002800D005E0FF2258324E
:1019F00025A12DA001F0BCFE00BF2846FFF781FE07
:101A00000646002E01D0002C01D10020F8BD7068E0
:101A1000406801214902884361784902012252024B
:101A200011400843716848602078002806D00128DA
:101A300006D0022803D0032811D102E000BF0FE036
:101A400000BF626851016278521C7A43104601F06F
:101A5000CDFE01210904081A80B2009000E000BF09
:101A600000BF0098D2E770B504460E46002500BFBF
:101A7000002C01D0012C55D1012054E01CED00E0D8
:101A800000E100E0580000202E2E5C2E2E5C2E2E51
:101A90005C2E2E5C6472697665725C7372635C7531
:101AA0006172742E63000000282828554152544367
:101AB0004830203D3D202875384964782929207C0C
:101AC0007C202855415254434831203D3D20287503
:101AD00038496478292929293E2030750000000002
:101AE000282828556172745478497271203D3D2030
:101AF00028656E49727153656C2929207C7C2028E9
:101B0000556172745278497271203D3D2028656E8E
:101B100049727153656C292929293E2030750000CE
:101B2000943A00000020002800D006E0FF2279321D
:101B3000F0490846203001F01BFE00BF2046FFF7A9
:101B4000E0FD0546002D01D1042070BD68684068A5
:101B50001021884331011022114008436968486010
:101B60000020F2E7F8B506460C460027002500BF26
:101B7000002E01D0012E01D1012000E0002000281C
:101B800000D006E0FF228F32DA490846203001F00B
:101B9000EFFD00BF00BF002C03D0012C01D0022CB0
:101BA00001D1012000E00020002800D005E0FF2244
:101BB0009032D049D04801F0DBFD00BF3046FFF73E
:101BC000A0FD0546002D01D10420F8BD002C04D055
:101BD000012C0BD0022C1BD111E068680069400772
:101BE000C00F012148404840074612E0686800697C
:101BF000C007C00F012148404840074609E0686817
:101C000000698007C00F012148404840074600E0B6
:101C100000BF00BF3846D8E770B506460D46002421
:101C200000BF002E01D0012E01D1012000E00020D4
:101C3000002800D006E0FF22B232AE49084620302C
:101C400001F096FD00BF00BF002D03D0012D01D093
:101C5000022D01D1012000E00020002800D005E085
:101C6000FF22B332A349A44801F082FD00BF3046F1
:101C7000FFF747FD0446002C01D1042070BD002D64
:101C800004D0012D09D0022D15D10DE06068406906
:101C900004218843616848610FE06068406940083A
:101CA00040006168486108E060684069022188433B
:101CB0006168486101E00420E0E700BF0020DDE743
:101CC00070B504460D46002600BF002C01D0012C43
:101CD00001D1012000E00020002800D006E0FF2212
:101CE000D53284490846203001F042FD00BF20462D
:101CF000FFF707FD0646002E01D1042070BD706875
:101D0000056000BF02212046FFF72CFF0028F9D014
:101D100002212046FFF780FF0020EFE770B5044660
:101D2000002500BF002C01D0012C01D1012000E0D2
:101D30000020002800D006E0FF22ED326D49084661
:101D4000203001F015FD00BF2046FFF7DAFC054604
:101D5000002D01D1042070BD68680068C0B2FAE7A8
:101D600070B5054600242846FFF7CBFC0446002C3E
:101D700000D170BD60680069C007C00F002808D09E
:101D800001212846FFF748FF2069002801D020697B
:101D90008047606800698007C00F002808D00221D2
:101DA0002846FFF739FFA068002801D0A0688047C7
:101DB00000BFDEE770B5054600BF002D01D0012D44
:101DC00001D1012000E00020002800D006E08B2295
:101DD000920048490846203001F0CAFC00BFA81D07
:101DE00044B2204600F07EF803212046FFF752FC63
:101DF00000BFE106C90E012088404049086000BFCD
:101E000070BD70B5054600BF002D01D0012D01D178
:101E1000012000E00020002800D006E00922920105
:101E200034490846203001F0A3FC00BFA81D44B28D
:101E3000204600F057F803212046FFF72BFC00BF97
:101E4000E106C90E012088402C498031086000BF9E
:101E500070BDF8B506460C460127002500BF002ED0
:101E600001D0012E01D1012000E00020002800D087
:101E700005E0234A1F490846203001F079FC00BFE5
:101E80003046FFF73EFC0546002D01D10420F8BD89
:101E9000002C01D10420FAE721783046FFF7D5FC69
:101EA00007466068002804D030466168FFF70BFDE4
:101EB0000746A068002808D0A0684168E960A068CB
:101EC00081682961A0680068A860207B012803D18F
:101ED0003046FFF76FFF02E03046FFF792FF002722
:101EE0003846D4E7C206D20E01219140054A11605E
:101EF00070470000881A0000FC3A000000E100E092
:101F00005502000080E200E070B50446002500BFE5
:101F1000002C03D0012C01D0022C01D1012000E0C3
:101F20000020002800D004E06822F6A1FC4801F05F
:101F30001FFC00BF002C04D0012C07D0022C10D1B4
:101F400009E0F8480069C507ED0F0CE0F548006BA3
:101F5000C507ED0F07E0F34840300069C507ED0FF6
:101F600001E0002500BF00BF284670BD70B50446E3
:101F7000002500BF002C03D0012C01D0022C01D180
:101F8000012000E00020002800D004E08A22DDA12A
:101F9000E34801F0EDFB00BF002C04D0012C09D078
:101FA000022C17D10DE0DF48406940084000DD49B0
:101FB000486111E0DB48406B40084000D949486364
:101FC0000AE0D8484030406940084000D5494031D7
:101FD000486101E0012500BF00BF284670BD70B513
:101FE0000446002500BF002C03D0012C01D0022C98
:101FF00001D1012000E00020002800D004E0AC2244
:10200000C0A1C74801F0B4FB00BF002C04D0012CD4
:102010000BD0022C1DD111E0C248C06801218902F9
:1020200088434018BF49C86015E0BE48C06A012116
:10203000890288434018BB49C8620CE0B948403067
:10204000C0680121890288434018B6494031C86000
:1020500001E0012500BF00BF284670BD70B50446F1
:10206000002500BF002C03D0012C01D0022C01D18F
:10207000012000E00020002800D004E0CE22A1A131
:10208000A74801F075FB00BF002C04D0012C0AD03A
:10209000022C1AD10FE0A348C068012189028843AD
:1020A000A049C86013E09F48C06A012189028843A3
:1020B0009C49C8620BE09B484030C06801218902FE
:1020C000884398494031C86001E0012500BF00BF46
:1020D000284670BD10B50446002C04D0012C06D053
:1020E000022C0CD107E090480068804708E08F4838
:1020F0000068804704E08E480068804700E000BF29
:1021000000BF10BD70B505460C46002600BF002D6F
:1021100003D0012D01D0022D01D1012000E00020CB
:10212000002800D005E0FF22103276A17C4801F0A3
:102130001FFB00BF002D04D0012D4AD0022D7DD100
:1021400091E07848C068012149028843217849021A
:1021500001225202114008437249C8600846C06813
:1021600089158843617809025210114008436D496E
:10217000C8600846C06870218843A17809017022B0
:10218000114008436749C8600846C0680821884371
:10219000E178C9000822114008436249C860084636
:1021A000C068042188432179890004221140084332
:1021B0005C49C8600846C0680221884361794900CB
:1021C0000222114008435749C8605749A068086077
:1021D000B2E05448C06A012149028843217849028B
:1021E00001225202114008434E49C8620846C06AA3
:1021F0008915884361780902521011400843494902
:10220000C8620846C06A70218843A178090170221B
:10221000114008434349C8620846C06A0821884300
:10222000E178C9000822114008433E49C8620846C7
:10223000C06A042188432179890000E07AE0042201
:10224000114008433749C8620846C06A02218843E2
:10225000617949000222114008433249C86233497A
:10226000E068086068E02F484030C06801214902FA
:10227000884321784902012252021140084329492A
:102280004031C8600846C0688915884361780902F2
:1022900052101140084323494031C8600846C068C5
:1022A00070218843A17809017022114008431D491B
:1022B0004031C8600846C06808218843E178C900F9
:1022C00008221140084317494031C8600846C068D9
:1022D00004218843217989000422114008431149CF
:1022E0004031C8600846C0680221884361794900CE
:1022F0000222114008430B494031C8600C49206953
:10230000086019E02E2E5C2E2E5C2E2E5C2E2E5C8C
:102310006472697665725C7372635C62742E6300CA
:10232000603B0000000C0040800000208400002082
:1023300088000020012600BF00BF304670BD70B588
:102340000446002500BF002C03D0012C01D0022C34
:1023500001D1012000E00020002800D005E0FF228C
:102360004D327349734801F003FA00BF002C04D0CA
:10237000012C0AD0022C1AD10FE06F48C068400827
:102380004000401C6C49C86013E06B48C06A4008BC
:102390004000401C6849C8620BE067484030C06894
:1023A00040084000401C64494031C86001E00125FC
:1023B00000BF00BF284670BD70B50446002500BFB1
:1023C000002C03D0012C01D0022C01D1012000E00F
:1023D0000020002800D005E0FF226F325449554804
:1023E00001F0C6F900BF002C04D0012C09D0022C4A
:1023F00017D10DE05048C068400840004E49C86001
:1024000011E04D48C06A400840004B49C8620AE0EC
:1024100049484030C0684008400047494031C860E2
:1024200001E0012500BF00BF284670BD70B504461D
:102430000D46002600BF002C03D0012C01D0022C39
:1024400001D1012000E00020002800D005E0FF229B
:1024500092323749374801F08BF900BF002C04D085
:10246000012C0BD0022C1DD111E033480068000C68
:102470000004A9B208433049086015E02E48006AFC
:10248000000C0004A9B208432B4908620CE02A485A
:1024900040300068000C0004A9B2084326494031CE
:1024A000086001E0012600BF00BF304670BD70B576
:1024B00004460D46002600BF002C03D0012C01D09D
:1024C000022C01D1012000E00020002800D005E00E
:1024D000FF22B5321649174801F04AF900BF002C17
:1024E00004D0012C0BD0022C1DD111E01248406801
:1024F000000C0004A9B208430F49486015E00E48DB
:10250000406A000C0004A9B208430B4948620CE081
:10251000094840304068000C0004A9B2084306494D
:102520004031486001E0012600BF00BF304670BD69
:1025300004230000603B0000000C0040014604E062
:10254000002000E0401C0228FCD30A46491E002A55
:10255000F6D1704710B50446A41E03E00120FFF732
:10256000EDFF641E002CF9D110BD00B50120FFF76E
:10257000E5FF0120FFF7E2FF0120FFF7DFFF012069
:10258000FFF7DCFF00BD00B50120FFF7D7FF0120FA
:10259000FFF7D4FF0120FFF7D1FF0120FFF7CEFFA7
:1025A0000120FFF7CBFF00BD0EB5002001210090F8
:1025B0000B460246019102900521012000F0E6FA47
:1025C00001220521104600F07DFB0EBD0EB5002056
:1025D000012100900B46024601910290032108461A
:1025E00000F0D4FA00220321084600F06BFB0EBD78
:1025F0000EB50020012100900B4602460191029089
:102600000321084600F0C2FA01220321084600F027
:1026100059FB0EBD0EB50020012100900B4602466D
:10262000019102900521012000F0B0FA002205215D
:10263000012000F047FB0EBD10B501220521104618
:1026400000F051FA10BD0EB50020012100900B469C
:102650000246019102900421012000F097FA012224
:102660000421104600F02EFB0EBD0EB50020012106
:1026700000900B460246019102900421012000F0D7
:1026800085FA00220421012000F01CFB0EBD0EB5CE
:102690000020012100900B46024601910290052185
:1026A000012000F073FA01220521104600F00AFB18
:1026B0000020012100900B46024601910290042166
:1026C000012000F063FA01220421104600F0FAFA1A
:1026D0000EBD10B5FFF768FF0820FFF73BFFFFF7BF
:1026E000B2FF0820FFF736FFFFF794FF0820FFF73F
:1026F00031FFFFF7BAFF0820FFF72CFF10BDF8B538
:10270000044625468027002614E0FFF7AEFFFFF7BA
:102710002CFF38462840002802D0FFF745FF01E093
:10272000FFF778FFFFF78FFFFFF71FFF6806050E23
:10273000701CC6B2082EE8DBFFF797FF0820FFF7F2
:1027400009FFFFF779FF0820FFF704FFF8BD70B518
:102750000024FFF78AFFFFF76FFF0820FFF7FAFE5C
:10276000002514E0FFF76FFFFFF70DFF002605219E
:10277000012000F0C8FA002800D001266000304394
:10278000C4B2FFF772FFFFF7FEFE681CC5B2082D4A
:10279000E8DBFFF751FF0820FFF7DCFE204670BDA5
:1027A00010B50024FFF761FFFFF746FF0820FFF791
:1027B000D1FEFFF748FF0820FFF7CCFE01E0601CC8
:1027C00084B20521012000F09EFA002801D0642C7B
:1027D000F5DB642C01D1002010BDFFF746FF082077
:1027E000FFF7B8FE0120F7E710B5FFF73EFF08201E
:1027F000FFF7B0FEFFF70EFF0820FFF7ABFEFFF775
:1028000022FF0820FFF7A6FEFFF72FFF0820FFF7A3
:10281000A1FEFFF711FF0820FFF79CFE10BD10B5C9
:10282000FFF723FF0820FFF795FEFFF7BDFE082006
:10283000FFF790FEFFF707FF0820FFF78BFEFFF77B
:1028400014FF0820FFF786FEFFF7E4FE0820FFF7DD
:1028500081FE10BD10B5FFF7DDFE0820FFF77AFE00
:10286000FFF7F1FE0820FFF775FEFFF79DFE082039
:10287000FFF770FE10BD10B5FFF72BFF7120FFF7BB
:102880003EFFFFF78DFFFFF762FF0446FFF7C7FF2C
:10289000FFF7E0FF204610BD10B5FFF71AFF7020CC
:1028A000FFF72DFFFFF77CFFAC20FFF728FFFFF7B6
:1028B00077FF3020FFF723FFFFF772FF0020FFF7BD
:1028C0001EFFFFF76DFFFFF7C5FF10BD70B586B0A7
:1028D0000546002105910491039102910191009117
:1028E00000240026FFF7D8FF00206D49088000BFB4
:1028F0006B480088FA28FBDB002608E06948FFF7F0
:1029000029FE3046711C8EB2642800DB05E0FFF71B
:10291000B2FF802108408028F0D000BFFFF7D9FE29
:102920007120FFF7ECFEFFF73BFFFFF710FF05906C
:10293000FFF75AFFFFF70BFF0490FFF755FFFFF774
:1029400006FF0390FFF750FFFFF701FF0290FFF72C
:102950004BFFFFF7FCFE0190FFF746FFFFF7F7FE86
:102960000090FFF75CFFFFF775FF6846007C20438F
:1029700004026846007B204304026846007A044350
:1029800024092C6000246846007A2043040268462B
:102990000079204304026846007804432403240B92
:1029A0006C6006B070BDF8B50446FFF792FE70206B
:1029B000FFF7A5FEFFF7F4FE2046FFF7A0FEFFF7A6
:1029C000EFFE0020FFF79BFEFFF7EAFE0020FFF777
:1029D00096FEFFF7E5FEFFF73DFF3A20FFF7BAFD51
:1029E0001C20FFF7B7FDFFF774FE7120FFF787FE8D
:1029F000FFF7D6FEFFF7ABFE0546FFF7F5FEFFF744
:102A0000A6FE0646FFF7F0FEFFF7A1FE0746FFF71A
:102A100006FFFFF71FFFF8BD10B5FFF738FEFFF701
:102A200058FE7020FFF76BFEFFF7BAFEA820FFF7F5
:102A300066FEFFF7B5FE0020FFF761FEFFF7B0FE70
:102A40000020FFF75CFEFFF7ABFEFFF703FF164821
:102A5000FFF780FDFFF73DFE7020FFF750FEFFF708
:102A60009FFEE120FFF74BFEFFF79AFE0820FFF7DD
:102A700046FEFFF795FE0020FFF741FEFFF790FEB0
:102A8000FFF7E8FE10BD10B50024FFF7F4FE044682
:102A900068202040082801D1012010BD0020FCE75B
:102AA0004C000020E40500001E2B000030B503465A
:102AB000002A0BD09801E24C0019C06801248C4018
:102AC00020439C01DE4D6419E0600AE09801DC4C73
:102AD0000019C06801248C40A0439C01D84D6419A2
:102AE000E060002030BD70B504460D461646D5485E
:102AF000006A0121090788434018D2490862002270
:102B000029462046FFF7D2FF0021A001CC4AFC3A1B
:102B10008018001FAA008150002E0BD0A001C849C8
:102B2000401800680121A9400843A101C44A89183E
:102B300008600AE0A001C249401800680121A940CC
:102B40008843A101BE4A89180860A001BC49401809
:102B5000006A0121A9408843A101B94A8918086285
:102B6000A00111464018406A0121A9408843A101F3
:102B700089184862A00111464018C16A0120A84086
:102B80008143A0018018C162002070BDF0B50446E9
:102B90000D4616461F46AB48006A012109078843C7
:102BA0004018A8490862002229462046FFF77EFF08
:102BB0000021A001A24AFC3A8018001FAA008150FF
:102BC000002E0BD0A0019E49401800680121A940A9
:102BD0000843A1019A4A891808600AE0A0019849AF
:102BE000401800680121A9408843A101944A89182E
:102BF0000860079800280BD0A00191494018C069CF
:102C00000121A9400843A1018D4A8918C8610AE041
:102C1000A0018B494018C0690121A9408843A10146
:102C2000874A8918C861002F0BD0A0018449401839
:102C3000006A0121A9400843A101814A891808625C
:102C40000AE0A0017E494018006A0121A94088439A
:102C5000A1017B4A89180862059800280BD0A001C1
:102C600077494018406A0121A9400843A101744AEC
:102C7000891848620AE0A00171494018406A0121A0
:102C8000A9408843A1016E4A891848620698002825
:102C90000BD0A0016A494018C06A0121A94008432D
:102CA000A101674A8918C8620AE0A0016449401876
:102CB000C06A0121A9408843A101614A8918C862FC
:102CC0000020F0BD30B5002A01D0012300E0002330
:102CD0001A46002A0BD08301594C1B199B6801240A
:102CE0008C4023438401564D6419A3600AE083019C
:102CF000534C1B199C6801238B409C438301504D0E
:102D00005B199C6030BD024690014D4BC018406875
:102D1000C840C007C00F704770B50446D007C00F49
:102D2000002818D0002B0BD0A001454D4019006B96
:102D300001258D402843A501414EAD1928630AE0C5
:102D4000A0013F4D4019006B01258D40A843A5010E
:102D50003B4EAD19286302201040002818D0002BEC
:102D60000BD0A001364D4019406B01258D40284302
:102D7000A501334EAD1968630AE0A001304D40193A
:102D8000406B01258D40A843A5012D4EAD19686308
:102D900004201040002818D0002B0BD0A001284D93
:102DA0004019806B01258D402843A501244EAD19A3
:102DB000A8630AE0A001224D4019806B01258D40D7
:102DC000A843A5011E4EAD19A86308201040002895
:102DD00018D0002B0BD0A001194D4019C06B012554
:102DE0008D402843A501164EAD19E8630AE0A00105
:102DF000134D4019C06B01258D40A843A501104E0D
:102E0000AD19E863002070BD70B504460D46164646
:102E10000123324629462046FFF77EFF002070BD81
:102E200010B502469001084BC018006901238B4081
:102E300098439301044C1B191861002010BD000039
:102E4000000D024000200040000E0240014600221A
:102E5000002900D1704701E0521C49080129FBD824
:102E60001046F7E710B50A460146002900D110BD0B
:102E700002E000230B70491C1346521E002BF8D1B0
:102E800000BFF4E7014604E0002000E0401C0228F7
:102E9000FCD30A46491E002AF6D1704710B50446F5
:102EA000A41E03E00120FFF7EDFF641E002CF9D102
:102EB00010BD0EB50020012100900B460246019185
:102EC000029005210120FFF761FE01220521104635
:102ED000FFF7F8FE0EBD0EB50020012100900B4655
:102EE00002460191029005210120FFF74FFE0022CA
:102EF00005210120FFF7E6FE0EBD10B501220521D8
:102F00001046FFF7F0FD10BD0EB500200121009026
:102F10000B4602460191029004210120FFF736FE84
:102F2000012204211046FFF7CDFE0EBD0EB5002094
:102F3000012100900B4602460191029004210120DC
:102F4000FFF724FE002204210120FFF7BBFE0EBD87
:102F50000EB50020012100900B460246019102901F
:102F600005210120FFF712FE012205211046FFF77F
:102F7000A9FE0020012100900B460246019102901B
:102F800004210120FFF702FE012204211046FFF771
:102F900099FE0EBD10B5FFF78CFF0820FFF77EFFEE
:102FA000FFF7B2FF0820FFF779FFFFF794FF082033
:102FB000FFF774FFFFF7BAFF0820FFF76FFF10BDA0
:102FC00070B50446002516E0FFF7B0FF0220FFF7BA
:102FD00065FF80202040002802D0FFF76AFF01E053
:102FE000FFF779FFFFF790FF0220FFF757FF60061A
:102FF000040E681CC5B2082DE6DBFFF797FF08201A
:10300000FFF74CFFFFF779FF0820FFF747FF70BD80
:1030100070B50024FFF78AFFFFF76FFF0820FFF766
:103020003DFF002516E0FFF76FFF0220FFF736FF98
:10303000002605210120FFF766FE002800D00126AA
:1030400060003043C4B2FFF771FF0220FFF726FF94
:10305000681CC5B2082DE6DBFFF74FFF0820FFF71D
:103060001DFF204670BD10B50024FFF75FFFFFF77E
:1030700044FF0820FFF712FFFFF746FF0820FFF785
:103080000DFF01E0601C84B205210120FFF73BFE2B
:10309000002801D0642CF5DB642C01D1002010BD88
:1030A000FFF744FF0820FFF7F9FE0120F7E710B50E
:1030B000FFF73CFF0820FFF7F1FEFFF70CFF0820A9
:1030C000FFF7ECFEFFF720FF0820FFF7E7FEFFF712
:1030D0002DFF0820FFF7E2FEFFF70FFF0820FFF7A4
:1030E000DDFE10BD10B5FFF721FF0820FFF7D6FE6B
:1030F000FFF7DFFE0820FFF7D1FEFFF705FF0820EE
:10310000FFF7CCFEFFF712FF0820FFF7C7FEFFF71F
:10311000E2FE0820FFF7C2FE10BD10B5FFF7DBFE90
:103120000820FFF7BBFEFFF7EFFE0820FFF7B6FE13
:10313000FFF7BFFE0820FFF7B1FE10BD10B5FFF787
:1031400007FFFFF727FF7020FFF73AFFFFF78BFF1E
:10315000C820FFF735FFFFF786FFE020FFF730FFBD
:10316000FFF781FFF020FFF72BFFFFF77CFF002028
:10317000FFF726FFFFF777FF1020FFF721FFFFF78C
:1031800072FF5020FFF71CFFFFF76DFF5020FFF785
:1031900017FFFFF768FF5520FFF712FFFFF763FFE8
:1031A0000520FFF70DFFFFF75EFF0520FFF708FF83
:1031B000FFF759FF0520FFF703FFFFF754FFFFF765
:1031C000ACFF10BD70B505460C46FFF7E3FE70205E
:1031D000FFF7F6FEFFF747FFC820FFF7F1FEFFF706
:1031E00042FFE020FFF7ECFEFFF73DFFF020FFF786
:1031F000E7FEFFF738FF0120FFF7E2FEFFF733FF9E
:10320000012406E0285DFFF7DBFEFFF72CFF601CC2
:10321000C4B2072CF6DB70BDF8B505460C46FE4877
:10322000854202DCFD48854209DAFD48807AA071BA
:10323000FB48C07A6071FA48C07A2071DCE0092D41
:1032400030DDF84885422DDC7D21C900284600F09C
:10325000D7FA07460A2100F0D3FAF148405CA07182
:103260006421284600F0CCFA07460A2100F0C8FA8B
:10327000EB48405C1021084360710A21284600F0A9
:10328000BFFA07460A2100F0BBFAE548405C10216E
:1032900008432071A079E24909788842CED1002004
:1032A000A071A9E0002D0ADD092D08DC0020A07125
:1032B0006071DB4800781021084320719CE0D948F8
:1032C000854220DD411C284600F09AFAD449085C6A
:1032D000A0717D21C900284600F092FA07460A2114
:1032E00000F08EFACE48405C60716421284600F000
:1032F00087FA07460A2100F083FAC948405C10218A
:103300000843207178E00320C043854218DC401F49
:10331000854215DB684286B2C148007BA0716421FA
:10332000284600F06DFA07460A2100F069FABC4809
:10333000405C6071BA48805D1021084320715BE0F9
:103340000920C043854233DCB748854230DB684200
:1033500086B27D21C900304600F052FA07460A21A4
:1033600000F04EFAAE48405CA0716421304600F097
:1033700047FA07460A2100F043FAA948405C1021A9
:10338000084360710A21304600F03AFA07460A21E4
:1033900000F036FAA248405C102108432071A07961
:1033A0009F490978884227D19D48007BA07123E07E
:1033B0009D48854220DA9D4885421DDB684286B2E1
:1033C0009748007BA0717D21C900304600F018FAB3
:1033D00007460A2100F014FA9148405C60716421AC
:1033E000304600F00DFA07460A2100F009FA8C4831
:1033F000405C102108432071FFF73DFAFF2804D1FB
:103400004F20A071422060712071F8BDF8B50546CB
:103410000C468748854202DA8648854209DA8048A8
:10342000807AA0717E48C07A60717D48C07A207130
:103430009CE0002D5CDBAEB26421304600F0E0F988
:1034400007460A2100F0DCF97548405C102108436A
:10345000A0710A21304600F0D3F907460A2100F096
:10346000CFF96F48405C1021084360710A21304653
:1034700000F0C6F96A48405C2071A179684800787C
:1034800010221043814201D11020A07166484042B1
:1034900086426BDD411C304600F0B2F96049085CA1
:1034A00010210843A0716421304600F0A9F90746B5
:1034B0000A2100F0A5F95A48405C60710A213046A3
:1034C00000F09EF96421009000F09AF90F460A215D
:1034D000384600F095F95248405C2071A179504877
:1034E000007810221043814240D11020A0713DE0AD
:1034F000002D1FDA6320C04385421BDD684286B27F
:103500004748007B10210843A0710A21304600F093
:1035100077F907460A2100F073F94148405C102111
:10352000084360710A21304600F06AF93C48405C6B
:1035300020711BE068420A2100F062F986B2384827
:10354000007B10210843A0710A21304600F058F991
:1035500007460A2100F054F93148405C60710A21A5
:10356000304600F04DF92E48405C2071FFF783F99A
:10357000FF2804D14F20A071422060712071F8BD56
:10358000F8B505460C467D20C000854201DA002DC5
:1035900009DC2948807A60702748C07AA0702648E4
:1035A000C07AE0702CE0AEB26421304600F028F919
:1035B00007460A2100F024F91F48405C0121084316
:1035C00060700A21304600F01BF907460A2100F01E
:1035D00017F91948405C01210843A0700A213046C0
:1035E00000F00EF91448405C01210843E070617856
:1035F0001148007801221043814201D101206070FE
:10360000FFF739F9FF281BD10B48807A60700A4810
:10361000C07AA070084811E00A760000D4E5FFFFE8
:10362000783A00000F27000019FCFFFF78ECFFFF3D
:10363000DD050000DAFDFFFF853A0000C07AE0708A
:10364000F8BD10B5FFF7A6FC7020FFF7B9FCFFF737
:103650000AFDC020FFF7B4FCFFF705FDE020FFF7EF
:10366000AFFCFFF700FDF020FFF7AAFCFFF7FBFC23
:103670000120FFF7A5FCFFF7F6FCFFF74EFD10BD9C
:103680002B494968090909010207120F1143284A09
:103690005160704770B50446012500BF002C01D071
:1036A000012000E00020002800D004E05D2221A1DC
:1036B00028A000F05DF800BF2078FFF7E1FF2B495C
:1036C000606808601A484068202188436178490191
:1036D000202211400843164948606078002804D031
:1036E000012203211620FDF7B5FC0025284670BDF8
:1036F00001201E210E4A1160E12111600020704757
:103700001E200B490860E1200860704710B508488A
:1037100040680006C00F002808D0FFF7E9FF1348F3
:103720000068002802D011480068804710BD0000E2
:10373000800C00402E2E5C2E2E5C2E2E5C2E2E5CDD
:103740006472697665725C7372635C7764742E630D
:1037500000000000283020213D2070737463436F07
:103760006E666967293E2030750000008C000020DD
:103770000EB5044615460E4612A000F0EFF820469E
:1037800000F0ECF815A000F0E9F8304600F0E6F89B
:1037900014A000F0E3F86C460020E0720A20A0724A
:1037A0000A3407E00A21284600F02AF8303105469D
:1037B000641E2170002DF5DC204600F0CFF800F0EB
:1037C000C5F800002A2A2A20617373657274696F34
:1037D0006E206661696C65643A2000002C20666981
:1037E0006C6520002C206C696E65200000220309A6
:1037F0008B422CD3030A8B4211D300239C464EE00C
:1038000003460B433CD4002243088B4231D30309C7
:103810008B421CD3030A8B4201D394463FE0C30979
:103820008B4201D3CB01C01A524183098B4201D391
:103830008B01C01A524143098B4201D34B01C01A7C
:10384000524103098B4201D30B01C01A5241C308F4
:103850008B4201D3CB00C01A524183088B4201D363
:103860008B00C01A524143088B4201D34B00C01A4F
:103870005241411A00D201465241104670475DE064
:10388000CA0F00D04942031000D3404253400022E7
:103890009C4603098B422DD3030A8B4212D3FC2290
:1038A000890112BA030A8B420CD3890192118B420F
:1038B00008D3890192118B4204D389013AD0921125
:1038C00000E08909C3098B4201D3CB01C01A5241E0
:1038D00083098B4201D38B01C01A524143098B42A9
:1038E00001D34B01C01A524103098B4201D30B0192
:1038F000C01A5241C3088B4201D3CB00C01A5241B7
:1039000083088B4201D38B00C01A5241D9D243089D
:103910008B4201D34B00C01A5241411A00D20146DA
:10392000634652415B10104601D34042002B00D544
:103930004942704763465B1000D3404201B5002006
:10394000C046C04602BD704770477047002000F077
:103950001BF8FCF7F5FB012000F010F810B5044649
:1039600002E0641C00F004F820780028F9D110BDB2
:1039700008B5694608700320ABBE08BD0149182090
:10398000ABBEFEE72600020010B500F02FF800F0F5
:1039900027F810BD7047754600F040F8AE460500A8
:1039A00069465346C008C000854618B020B5FCF7EC
:1039B000EDFB60BC00274908B6460026C0C5C0C55F
:1039C000C0C5C0C5C0C5C0C5C0C5C0C5403D490013
:1039D0008D4670470446C046C0462046FCF7BBFBF8
:1039E00010B5002801D0FFF7C9FF10BD10B50021A8
:1039F00002A000F017F8012010BD00005349474114
:103A00004252543A2041626E6F726D616C2074654F
:103A1000726D696E6174696F6E00000000487047D6
:103A2000C800002070B505460C460A2000E06D1C59
:103A3000FFF79EFF002D06D028780028F7D102E07E
:103A4000641CFFF795FF002C02D020780028F7D1E6
:103A50000A20FFF78DFF70BD30B47446641E2578D0
:103A6000641CAB4204D3635D5B00E31830BC1847B1
:103A70001D46F8E748018001AFA0CBE9E46D6FA8CF
:103A8000EFED4F4240FA0AD69E2EBCFC1AFEBEF461
:103A900044040000282828556172744D6F64653015
:103AA0003D3D28656E4D6F646529297C7C20285535
:103AB0006172744D6F6465313D3D28656E4D6F6474
:103AC0006529297C7C2028556172744D6F646532AC
:103AD0003D3D28656E4D6F646529297C7C20285505
:103AE0006172744D6F6465333D3D28656E4D6F6442
:103AF00065292929293E20307500000028282855ED
:103B0000617274524652414D454572726F72203D4A
:103B10003D2028656E53746174757329297C7C205F
:103B20002855617274527846756C6C203D3D202892
:103B3000656E53746174757329297C7C20285561E6
:103B400072745478456D707479203D3D2028656EFF
:103B5000537461747573292929293E20307500003A
:103B6000282854494D30203D3D2028656E556E690A
:103B70007429207C7C2054494D31203D3D2028650E
:103B80006E556E697429207C7C2054494D32203D4D
:103B90003D2028656E556E69742929293E203075AF
:103BA00000000000C43B0000000000209000000066
:103BB00004010000543C0000900000209801000027
:103BC0002001000000093D0000000000000000008E
:103BD00000000000000000000000000000000000E5
:103BE00000000000000000000000000000000000D5
:103BF00000000000000000000000000000000000C5
:103C00000000000001000B000000000000000000A8
:103C100000000000003E0000000000000000000066
:103C20000000004000000000000000000000000054
:103C30000100000000010040000000000000000042
:103C40000000000000000000000000000000000074
:043C50000000000070
:04000005000000C136
:00000001FF
